:100000000C944A010C947B010C947B010C947B01B1
:100010000C947B010C947B010C947B010C947B0170
:100020000C947B010C947B010C947B010C947B0160
:100030000C947B010C947B010C947B010C947B0150
:100040000C947B010C947B010C947B010C947B0140
:100050000C947B010C947B010C947B010C94300577
:100060000C947B010C9478050C94A9050C947B01ED
:100070000C947B010C947B010C947B010C947B0110
:100080000C947B010C947B010C947B010C947B0100
:100090000C947B010C947B010C947B010C947B01F0
:1000A0000C947B010C947B010C947B010C947B01E0
:1000B0000C947B010C947B010C947B010C947B01D0
:1000C0000C947B010C947B010C947B010C947B01C0
:1000D0000C947B010C947B010C947B010C947B01B0
:1000E0000C947B010C94AF030C94C3020C94A503F5
:1000F0000C94D3020C94F3020C9440030C94EF0282
:100100000C94E5020C94C0020C94B4020C949B0372
:100110000C9426040C94D7020C94C9020C941F036F
:100120000C9464030C9478030C9427030C94B80289
:100130000C94A2020C946F090C944A030C94E902EB
:100140000C9457040C94C4040C94DB020C94B90373
:100150000C94CD020C942C030C94E0030C94360305
:100160000C9487030C9491030C945A030C94BC02D6
:100170000C946E030C949D020C9477040C9434043C
:100180000C94E1020C9448040C94520300002200E9
:10019000250028002B002E00310034000201000051
:1001A000050108010B0100002100240027002A009E
:1001B0002D003000330001010000040107010A0195
:1001C00005050505070508080808020202020A0AD3
:1001D00008080404040401010101010101010303F1
:1001E000030303030303040707070C0C0C0C0C0C9C
:1001F0000C0C0202020206060606060606060B0B99
:100200000B0B0B0B0B0B01021020200808102040D9
:1002100010204080020102010804020101020408CA
:100220001020408080402010080402018004020158
:1002300080402010080402010804020101020408A1
:1002400010204080010204081020408000000A0BAA
:1002500002090C0D0E080703040100000000000055
:10026000000000000000000000000000000000008E
:10027000000000000000000012111000000000004B
:10028000000000000000000000000000000000006E
:1002900000006F0911241FBECFEFD1E2DEBFCDBF3A
:1002A00000E00CBF12E0A0E0B2E0ECE1FAE100E017
:1002B0000BBF02C007900D92AA32B107D9F723E015
:1002C000AAE2B2E001C01D92A231B207E1F711E04B
:1002D000CAE4D1E000E006C021970109802FFE01A9
:1002E0000E94E00CC934D10780E00807A9F70E94FA
:1002F000D3050C942C0A0C940000863308F0865326
:1003000020917B00982F9870277F922B90937B00F1
:100310008770806480937C0080917A0080648093F1
:100320007A0080917A0086FDFCCF809178009091D0
:1003300079000895CF93DF9300D00F92CDB7DEB749
:100340008FB7F89420910E0330910F034091100362
:100350005091110329833A834B835C838FBF69815A
:100360007A818B819C810F900F900F900F90DF917D
:10037000CF910895CF93DF9300D00F92CDB7DEB722
:100380003FB7F8948091090390910A03A0910B0361
:10039000B0910C0326B5A89B05C02F3F19F001961C
:1003A000A11DB11D3FBFBA2FA92F982F8827820FFB
:1003B000911DA11DB11D9C01AD0162E0220F331FF3
:1003C000441F551F6A95D1F7CA01B9010F900F90CC
:1003D0000F900F90DF91CF910895789484B582604B
:1003E00084BD84B5816084BD85B5826085BD85B5D9
:1003F000816085BDEEE6F0E0808181608083E1E888
:10040000F0E01082808182608083808181608083BF
:10041000E0E8F0E0808181608083E1EBF0E08081C2
:1004200084608083E0EBF0E0808181608083E1E99B
:10043000F0E0808182608083808181608083E0E958
:10044000F0E0808181608083E1EAF0E08081826079
:100450008083808181608083E0EAF0E08081816038
:100460008083E1E2F1E0808182608083808181602D
:100470008083E0E2F1E0808181608083EAE7F0E060
:1004800080818460808380818260808380818160BC
:1004900080838081806880831092C1000895CF930B
:1004A000DF9390E0FC01EA5FFD4F249180549E4F62
:1004B000FC0184918823D1F090E0880F991FFC0102
:1004C000EA55FE4FA591B491FC01E457FE4FC5914A
:1004D000D49161110EC09FB7F8948C91E22FE095F2
:1004E0008E238C932881E223E8839FBFDF91CF91F5
:1004F00008958FB7F894EC91E22BEC938FBFF6CF71
:10050000282F30E0F901E45BFD4F9491F901EA5F97
:10051000FD4F449120543E4FF9012491222319F1BB
:10052000992381F09150923168F4E92FF0E0882707
:10053000E651F34F8F4F0C94E00C809180008F7741
:1005400080938000E22FF0E0EE0FFF1FE457FE4F94
:10055000A591B4918FB7F894EC91611148C0409582
:100560004E234C938FBF0895809180008F7DE8CFFC
:1005700080918000877FE4CF84B58F7784BDE2CF00
:1005800084B58F7DFBCF8091B0008F778093B000D2
:10059000D9CF8091B0008F7DF9CF809190008F7777
:1005A00080939000CFCF809190008F7DF9CF809184
:1005B0009000877FF5CF8091A0008F778093A00077
:1005C000C1CF8091A0008F7DF9CF8091A000877F5F
:1005D000F5CF809120018F7780932001B3CF809158
:1005E00020018F7DF9CF80912001877FF5CF4E2BA1
:1005F000B8CF1F93CF93DF93182FEB0161E00E94D8
:100600004F02209739F460E0812FDF91CF911F9145
:100610000C948002CF3FD10511F461E0F5CFE12FBA
:10062000F0E0E45BFD4FE491E150E23108F0A1C05D
:10063000F0E08827E450F34F8F4F0C94E00C84B522
:10064000806884BDC7BDDF91CF911F91089584B5A7
:10065000806284BDC8BDF7CF8091800080688093A0
:100660008000D0938900C0938800EDCF80918000F6
:10067000806280938000D0938B00C0938A00E3CF88
:1006800080918000886080938000D0938D00C0931B
:100690008C00D9CF8091B00080688093B000C09367
:1006A000B300D1CF8091B00080628093B000C0933E
:1006B000B400C9CF80919000806880939000D0935F
:1006C0009900C0939800BFCF809190008062809382
:1006D0009000D0939B00C0939A00B5CF809190007A
:1006E000886080939000D0939D00C0939C00ABCF16
:1006F0008091A00080688093A0008091A0008F7BF3
:100700008093A000D093A900C093A8009CCF8091B3
:10071000A00080628093A000D093AB00C093AA0099
:1007200092CF8091A00088608093A000D093AD000C
:10073000C093AC0088CF8091200180688093200115
:10074000D0932901C09328017ECF8091200180623F
:1007500080932001D0932B01C0932A0174CF809104
:100760002001886080932001D0932D01C0932C013B
:100770006ACFC038D1050CF446CF4FCFFC01848D31
:10078000DF01A80FB11DA35ABF4F2C91848D90E0BB
:1007900001968F739927848FA689B7892C93A08996
:1007A000B1898C91837080648C93938D848D981320
:1007B00006C00288F389E02D80818F7D80830895B3
:1007C000FC01818D228D90E0805C9F4F821B9109FE
:1007D0008F73992708958CE692E00E94E0039C01B4
:1007E00081E0232B09F480E0089580E090E0892BDC
:1007F00029F00E94EB0381110E94000080E090E04C
:10080000892B49F080E090E0892B29F00E940000BC
:1008100081110E94000080E090E0892B49F080E087
:1008200090E0892B29F00E94000081110E940000B5
:1008300080E090E0892B49F080E090E0892B29F05E
:100840000E94000081110C9400000895FC01918D1C
:10085000828D981731F0828DE80FF11D858D90E023
:1008600008958FEF9FEF0895FC01918D828D981769
:1008700061F0828DDF01A80FB11D5D968C91928D84
:100880009F5F9F73928F90E008958FEF9FEF089581
:10089000FC01538D448D252F30E0842F90E0821B86
:1008A000930B541710F0CF96089501970895CF93A6
:1008B000DF93EC01888D8823B9F0AA89BB89E88988
:1008C000F9898C9185FD03C0808186FD0DC00FB62E
:1008D00007FCF7CF8C9185FFF2CF808185FFEDCFAC
:1008E000CE010E94BE03E9CFDF91CF910895EF9230
:1008F000FF920F931F93CF93DF93EC01F62E81E0CD
:10090000888F9B8D8C8D98131AC0E889F989808116
:1009100085FF15C09FB7F894EE89FF896083E88949
:10092000F98980818370806480839FBF81E090E03B
:10093000DF91CF911F910F91FF90EF9008950B8D54
:1009400010E00F5F1F4F0F731127E02E8C8D8E115B
:100950000CC00FB607FCFACFE889F989808185FFC2
:10096000F5CFCE010E94BE03F1CF8B8DFE01E80FC3
:10097000F11DE35AFF4FF0829FB7F8940B8FEA897D
:10098000FB8980818062D0CFCF92DF92EF92FF927D
:100990000F931F93CF93DF937C016A0110E000E077
:1009A0000C151D0581F0EB01D701ED91FC91019033
:1009B000F081E02D6991C7011995892B21F00F5F16
:1009C0001F4FBE01EDCFC801DF91CF911F910F9155
:1009D000FF90EF90DF90CF9008958F929F92AF920B
:1009E000BF92CF92DF92EF92FF92CF93DF9300D02E
:1009F0000F92CDB7DEB70E94BA016B017C018AE08D
:100A0000882E912CA12CB12C0E94BA01DC01CB01C3
:100A10008C199D09AE09BF09883E9340A105B10517
:100A200098F321E0821A9108A108B10888EEC80E57
:100A300083E0D81EE11CF11C81149104A104B104CF
:100A400019F70F900F900F900F90DF91CF91FF90BB
:100A5000EF90DF90CF90BF90AF909F908F900895D0
:100A60001F921FB61F9211242F933F938F939F9332
:100A7000AF93BF9380910E0390910F03A091100349
:100A8000B091110330910D0323E0230F2D3750F562
:100A90000196A11DB11D20930D0380930E03909329
:100AA0000F03A0931003B093110380910903909159
:100AB0000A03A0910B03B0910C030196A11DB11D77
:100AC0008093090390930A03A0930B03B0930C0344
:100AD000BF91AF919F918F913F912F911F901FBE1A
:100AE0001F90189526E8230F0296A11DB11DD3CFA4
:100AF0002F932FB72F932BB72F938F939F93EF9312
:100B0000FF93E0917C02F0917D028081E09182026E
:100B1000F091830282FD1BC09081809185028F5FDE
:100B20008F7320918602821741F0E0918502F0E0F8
:100B3000E459FD4F958F80938502FF91EF919F912E
:100B40008F912F912BBF2F912FBF2F9118958081BF
:100B5000F4CF1F920F920FB60F9211240BB60F9283
:100B60002F933F934F935F936F937F938F939F93B5
:100B7000AF93BF93EF93FF938CE692E00E94BE0386
:100B8000FF91EF91BF91AF919F918F917F916F9165
:100B90005F914F913F912F910F900BBE0F900FBE21
:100BA0000F901F901895CDB7DEB7A6970FB6F894A3
:100BB000DEBF0FBECDBF0E94ED01E0917C02F0913F
:100BC0007D0282E08083E0917802F09179021082C8
:100BD000E0917A02F0917B0280E18083109284029E
:100BE000E0918002F091810286E08083E0917E02B4
:100BF000F0917F02808180618083E0917E02F0919C
:100C00007F02808188608083E0917E02F0917F0284
:100C1000808180688083E0917E02F0917F028081F4
:100C20008F7D808360E086E30E944F0261E082E076
:100C30000E944F0261E083E00E944F0261E084E085
:100C40000E944F0261E085E00E944F028BEE90E02F
:100C5000909333028093320282E093E090933502C6
:100C6000809334028AE590E09093370280933602B5
:100C70008EE091E0909339028093380281E0809376
:100C80003E029E012F5F3F4F3E8B2D8B3D893DA342
:100C90004E894EA3CE014596988F8F8B8CE692E0BD
:100CA0000E94E003181619060CF04BC00D891E892E
:100CB0000E949A0160937402709375028093760289
:100CC00090937702E0916C02F0916D020284F385BB
:100CD000E02D8CE692E0199597FFF7C20E949A01E9
:100CE000698F7A8F8B8F9C8F80917402909175029F
:100CF000A0917602B0917702298D3A8D4B8D5C8D53
:100D0000281B390B4A0B5B0BDA01C90140917002B9
:100D1000509171026091720270917302841795076D
:100D2000A607B70778F28DA19EA10E940E0A46EB96
:100D3000489F9001499F300D112430931702209352
:100D400016020091160210911702C8018F589340A5
:100D50008F3854EF950768F0019609F48BC20E5155
:100D6000184F809590950817190708F083C20EE177
:100D700018EFE0914302F0914402C680D7800D2C19
:100D8000000CEE08FF0880849184092C000CAA084E
:100D9000BB0824813581C901330FAA0BBB0B898F96
:100DA0009A8FAB8FBC8F42805380052C000C660855
:100DB000770880810E947D019C01990F440B550B9F
:100DC0002419350946095709D701C6018819990917
:100DD000AA09BB09BC01CD010E94D00C6D8F7E8F8A
:100DE0008F8F98A3298D3A8D4B8D5C8D24193509F1
:100DF000460957090E94750C820E931EA41EB51E4B
:100E0000A6EBA89DC001A99D900D1124081B190BEC
:100E1000FF24F39417FF04C000951095FF24FA9463
:100E2000980150E040E0298F3A8F4B8F5C8FCA01C8
:100E3000B8010E943C0A20E03FEF4FE757E4698F7A
:100E40007A8F8B8F9C8F698D7A8D8B8D9C8D0E9474
:100E5000C80B20E030E044EB53E4698F7A8F8B8F2E
:100E60009C8F698D7A8D8B8D9C8D0E949D0AD62ECC
:100E7000E72E8C018F2DFF0C990BAA0BBB0B898FD2
:100E80009A8FAB8FBC8FBC01CD010E943E0A9B01A3
:100E9000AC01D98EEA8E0B8F1C8F698D7A8D8B8D6C
:100EA0009C8D0E949D0A60936302709364028093FC
:100EB0006502909366020E949A010E943C0A20E01B
:100EC00030E04AE754E4698F7A8F8B8F9C8F698D6D
:100ED0007A8D8B8D9C8D0E94C80B20914F02309192
:100EE00050024091510250915202698F7A8F8B8F3C
:100EF0009C8F698D7A8D8B8D9C8D0E945B0B5B0125
:100F00006C0120915F02309160024091610250912A
:100F1000620229A33AA34BA35CA320916302309100
:100F20006402409165025091660269A17AA18BA189
:100F30009CA10E945B0B7B018C019B01AC01A98EE3
:100F4000BA8ECB8EDC8E698D7A8D8B8D9C8D0E94B6
:100F50009D0A20914B0230914C0240914D025091DC
:100F60004E02698F7A8F8B8F9C8F698D7A8D8B8DD6
:100F70009C8D0E945C0B3B014C01CB01D401809302
:100F80004B0290934C02A0934D02B0934E024091BD
:100F90004502509146025E8F4D8FDA011C962D91CD
:100FA0003D914D915C911F9769A17AA18BA19CA164
:100FB0000E949D0A362E472E582E292EED8DFE8D2D
:100FC0002081318142815381E98EFA8E0B8F1C8FF3
:100FD000698D7A8D8B8D9C8D0E949D0A9B01AC0141
:100FE000398E4A8E5B8E2C8E698D7A8D8B8D9C8D81
:100FF0000E945C0B1B012C01AD8DBE8D14962D91B2
:101000003D914D915C911797698E7A8E8B8E9C8E57
:10101000698D7A8D8B8D9C8D0E949D0A9B01AC0100
:10102000298E3A8E4B8E5C8E698D7A8D8B8D9C8D40
:101030000E945C0B3B014C01209147023091480219
:101040004091490250914A02E98EFA8E0B8F1C8F13
:10105000698D7A8D8B8D9C8D0E945B0BED8DFE8D45
:101060002085318542855385698F7A8F8B8F9C8F40
:10107000698D7A8D8B8D9C8D0E949D0A9501A601AC
:10108000698F7A8F8B8F9C8F698D7A8D8B8D9C8DDC
:101090000E94C80B9B01AC01698E7A8E8B8E9C8E50
:1010A000698D7A8D8B8D9C8D0E945C0B609367029D
:1010B000709368028093690290936A020E949A0179
:1010C0000E943C0A20E030E04AE754E4698F7A8FBE
:1010D0008B8F9C8F698D7A8D8B8D9C8D0E94C80B18
:1010E00060934F027093500280935102909352028A
:1010F0002091630230916402409165025091660232
:1011000060915F0270916002809161029091620231
:101110000E945B0B609347027093480280934902E0
:1011200090934A02E0905702F090580200915902C1
:1011300010915A0220E030E0A901E98EFA8E0B8F5F
:101140001C8F698D7A8D8B8D9C8D0E94370A811141
:1011500010C020E030E0A90160915B0270915C0258
:1011600080915D0290915E020E94370A882309F403
:101170003EC0A0906702B0906802C0906902D09013
:101180006A022A2D3B2D4C2D5D2DE98EFA8E0B8F98
:101190001C8F698D7A8D8B8D9C8D0E94700C18161A
:1011A000D4F0E0905B02F0905C0200915D0210913F
:1011B0005E022E2D3F2D402F512FA98EBA8ECB8E41
:1011C000DC8E698D7A8D8B8D9C8D0E94700C18162B
:1011D00014F0750186018E2D9F2DA02FB12F8093C5
:1011E000670290936802A0936902B0936A0220E0BC
:1011F00030E04FE753E4609167027091680280919C
:10120000690290916A020E949D0A698F7A8F8B8F82
:101210009C8F698D7A8D8B8D9C8D0E943A0C462F08
:10122000572FCA014F5C5F4F4336510510F480E0E1
:1012300090E0E0903F02F09040028C018130FFEF9F
:101240009F0714F401E01FEF0F3F110519F014F090
:101250000FEF10E0D70112962C91222371F018168F
:1012600019066CF0892BE1F460E0F70180810E949F
:1012700080020FC00EE813E07CCD97FFF3CFB801DA
:1012800017FF03C0719561957109F70180810E9474
:10129000F90260E0D70111968C910E94800210C083
:1012A00060E0F70180810E948002B80117FF03C04F
:1012B000719561957109D70111968C910E94F9027F
:1012C0000E94ED040E94F503E9CCF80181932F8977
:1012D000388DE217F30709F426CD8F01E9CCCF93BF
:1012E000DF93ECE6F2E01382128288EE93E0A0E056
:1012F000B0E084839583A683B7838CE192E09183E9
:10130000808385EC90E09587848784EC90E09787D4
:10131000868780EC90E0918B808B81EC90E0938BC2
:10132000828B82EC90E0958B848B86EC90E0978B9F
:10133000868B118E128E138E148EA0E3B2E086E39C
:1013400090E011969C938E9313961C921E92129786
:101350008FEF93E015969C938E93149717961C929B
:101360001E92169719969C938E9318971B961C9213
:101370001E921A978FEF9FEF1D969C938E931C974A
:101380001E961C921E978DE292E024E0FC012083C1
:1013900025E021831282CAE2D2E022E0288323E002
:1013A00029831A82EFE3F2E091838083D383C2839F
:1013B000B583A48380E092E09783868310861186AC
:1013C000128613861486158616861786108A118A49
:1013D000128A138A148A158A168A178A10A211A2F1
:1013E00012A213A214A215A216A217A210A611A649
:1013F00012A613A614A680E090E0A0E8BFEB808FB1
:10140000918FA28FB38F80E090E0A0E8BFE3848F3C
:10141000958FA68FB78FDF91CF910895FC01882714
:101420009927E89421912032E9F3293010F02E30E9
:10143000C8F32B3241F02D3239F4689404C00E9475
:101440002F0A820F911D219120532A30C0F31EF4E0
:10145000909581959F4F0895F8940C94E80C7AE04C
:10146000979F902D879F802D910D112408950E94A4
:10147000790A08F481E00895E89409C097FB3EF4E6
:1014800090958095709561957F4F8F4F9F4F9923D1
:10149000A9F0F92F96E9BB279395F695879577954F
:1014A0006795B795F111F8CFFAF4BB0F11F460FF0F
:1014B0001BC06F5F7F4F8F4F9F4F16C0882311F067
:1014C00096E911C0772321F09EE8872F762F05C07B
:1014D000662371F096E8862F70E060E02AF09A9516
:1014E000660F771F881FDAF7880F9695879597F90B
:1014F0000895990F0008550FAA0BE0E8FEEF1616A5
:101500001706E807F907C0F012161306E407F507F7
:1015100098F0621B730B840B950B39F40A2661F06B
:10152000232B242B252B21F408950A2609F4A1400E
:10153000A6958FEF811D811D08950E94B00A0C941D
:10154000210B0E94130B38F00E941A0B20F09523F8
:1015500011F00C940A0B0C94100B11240C94550BE5
:101560000E94320B70F3959FC1F3950F50E0551F09
:10157000629FF001729FBB27F00DB11D639FAA27E8
:10158000F00DB11DAA1F649F6627B00DA11D661F37
:10159000829F2227B00DA11D621F739FB00DA11D58
:1015A000621F839FA00D611D221F749F3327A00D12
:1015B000611D231F849F600D211D822F762F6A2FAE
:1015C00011249F5750409AF0F1F088234AF0EE0F13
:1015D000FF1FBB1F661F771F881F91505040A9F740
:1015E0009E3F510580F00C940A0B0C94550B5F3F05
:1015F000E4F3983ED4F3869577956795B795F7957C
:10160000E7959F5FC1F7FE2B880F911D96958795F3
:1016100097F9089597F99F6780E870E060E0089572
:101620009FEF80EC089500240A94161617061806FA
:101630000906089500240A941216130614060506D6
:101640000895092E0394000C11F4882352F0BB0F67
:1016500040F4BF2B11F460FF04C06F5F7F4F8F4FCA
:101660009F4F089557FD9058440F551F59F05F3F05
:1016700071F04795880F97FB991F61F09F3F79F0B4
:1016800087950895121613061406551FF2CF469536
:10169000F1DF08C0161617061806991FF1CF8695B8
:1016A0007105610508940895E894BB27662777279C
:1016B000CB0197F908955058BB27AA270E94730BB6
:1016C0000C94210B0E94130B38F00E941A0B20F08F
:1016D00039F49F3F19F426F40C94100B0EF4E095A6
:1016E000E7FB0C940A0BE92F0E94320B58F3BA1750
:1016F000620773078407950720F079F4A6F50C9428
:10170000540B0EF4E0950B2EBA2FA02D0B01B9014E
:1017100090010C01CA01A0011124FF27591B99F067
:10172000593F50F4503E68F11A16F040A22F232F73
:10173000342F4427585FF3CF469537952795A795C3
:10174000F0405395C9F77EF41F16BA0B620B730B6A
:10175000840BBAF09150A1F0FF0FBB1F661F771FDB
:10176000881FC2F70EC0BA0F621F731F841F48F490
:10177000879577956795B795F7959E3F08F0B0CF19
:101780009395880F08F09927EE0F97958795089500
:101790000E94DC0B0C94210B0E941A0B58F00E9443
:1017A000130B40F029F45F3F29F00C940A0B511100
:1017B0000C94550B0C94100B0E94320B68F3992378
:1017C000B1F3552391F3951B550BBB27AA2762173D
:1017D0007307840738F09F5F5F4F220F331F441F4A
:1017E000AA1FA9F335D00E2E3AF0E0E832D091507E
:1017F0005040E695001CCAF72BD0FE2F29D0660F6B
:10180000771F881FBB1F261737074807AB07B0E8AD
:1018100009F0BB0B802DBF01FF2793585F4F3AF0B3
:101820009E3F510578F00C940A0B0C94550B5F3FCA
:10183000E4F3983ED4F3869577956795B795F79539
:101840009F5FC9F7880F911D9695879597F9089521
:10185000E1E0660F771F881FBB1F621773078407BD
:10186000BA0720F0621B730B840BBA0BEE1F88F7CC
:10187000E09508950E94410C6894B1110C94550BA9
:1018800008950E943A0B88F09F5798F0B92F992736
:10189000B751B0F0E1F0660F771F881F991F1AF05B
:1018A000BA95C9F714C0B13091F00E94540BB1E061
:1018B00008950C94540B672F782F8827B85F39F060
:1018C000B93FCCF3869577956795B395D9F73EF4F4
:1018D00090958095709561957F4F8F4F9F4F08959C
:1018E0000E94790A08F48FEF0895052E97FB1EF4E5
:1018F00000940E948C0C57FD07D00E949F0C07FC9F
:1019000003D04EF40C948C0C509540953095219555
:101910003F4F4F4F5F4F089590958095709561951B
:101920007F4F8F4F9F4F08950E94C10CA59F900D30
:10193000B49F900DA49F800D911D11240895A1E2E4
:101940001A2EAA1BBB1BFD010DC0AA1FBB1FEE1F39
:10195000FF1FA217B307E407F50720F0A21BB30B84
:10196000E40BF50B661F771F881F991F1A9469F700
:1019700060957095809590959B01AC01BD01CF015C
:101980000895A29FB001B39FC001A39F700D811D58
:101990001124911DB29F700D811D1124911D089578
:1019A000DB018F939F930E94940CBF91AF91A29FF4
:1019B000800D911DA39F900DB29F900D112408954D
:1019C000EE0FFF1F881F8BBF0790F691E02D199433
:1019D000F894FFCFBC02C0029D02B402B802A2027A
:1019E000C302C902CD02D302D702DB02E102E50243
:1019F000A202E902EF02F3021F0327032C033603BE
:101A00004003B9034A0352035A0364036E03780385
:0C1A100087039103B9039B03A503AF03F8
:101A1C000AD7233D000000006F12033B00000000BA
:101A2C00000000000000F87F000000007704C404F0
:0A1A3C0048045704E00334042604B4
:00000001FF
